{
  "_format": "hh-sol-artifact-1",
  "contractName": "GuessingGame",
  "sourceName": "contracts/GuessingGame.sol",
  "abi": [
    {
      "inputs": [
        {
          "internalType": "contract ICommitmentVerifier",
          "name": "cVerAddr",
          "type": "address"
        },
        {
          "internalType": "contract IOpeningVerifier",
          "name": "oVerAddr",
          "type": "address"
        }
      ],
      "stateMutability": "nonpayable",
      "type": "constructor"
    },
    {
      "inputs": [],
      "name": "GuessingGame__GameHasEnded",
      "type": "error"
    },
    {
      "inputs": [
        {
          "internalType": "uint32",
          "name": "gameId",
          "type": "uint32"
        },
        {
          "internalType": "uint8",
          "name": "round",
          "type": "uint8"
        },
        {
          "internalType": "address",
          "name": "addr",
          "type": "address"
        }
      ],
      "name": "GuessingGame__InvalidCommitmentProof",
      "type": "error"
    },
    {
      "inputs": [],
      "name": "GuessingGame__InvalidGameId",
      "type": "error"
    },
    {
      "inputs": [
        {
          "internalType": "uint32",
          "name": "gameId",
          "type": "uint32"
        },
        {
          "internalType": "uint8",
          "name": "round",
          "type": "uint8"
        },
        {
          "internalType": "address",
          "name": "addr",
          "type": "address"
        }
      ],
      "name": "GuessingGame__InvalidOpeningProof",
      "type": "error"
    },
    {
      "inputs": [
        {
          "internalType": "uint32",
          "name": "gameId",
          "type": "uint32"
        }
      ],
      "name": "GuessingGame__NotEnoughPlayers",
      "type": "error"
    },
    {
      "inputs": [
        {
          "internalType": "uint32",
          "name": "gameId",
          "type": "uint32"
        },
        {
          "internalType": "address",
          "name": "addr",
          "type": "address"
        }
      ],
      "name": "GuessingGame__NotGameHost",
      "type": "error"
    },
    {
      "inputs": [],
      "name": "GuessingGame__NotOneOfPlayers",
      "type": "error"
    },
    {
      "inputs": [
        {
          "internalType": "address",
          "name": "p",
          "type": "address"
        }
      ],
      "name": "GuessingGame__PlayerAlreadyJoin",
      "type": "error"
    },
    {
      "inputs": [
        {
          "internalType": "enum IGuessingGame.GameState",
          "name": "expected",
          "type": "uint8"
        },
        {
          "internalType": "enum IGuessingGame.GameState",
          "name": "actual",
          "type": "uint8"
        }
      ],
      "name": "GuessingGame__UnexpectedGameState",
      "type": "error"
    },
    {
      "inputs": [
        {
          "internalType": "uint32",
          "name": "gameId",
          "type": "uint32"
        },
        {
          "internalType": "uint8",
          "name": "round",
          "type": "uint8"
        },
        {
          "internalType": "address",
          "name": "addr",
          "type": "address"
        }
      ],
      "name": "GuessingGame__UnmatchedCommitment",
      "type": "error"
    },
    {
      "inputs": [
        {
          "internalType": "address",
          "name": "owner",
          "type": "address"
        }
      ],
      "name": "OwnableInvalidOwner",
      "type": "error"
    },
    {
      "inputs": [
        {
          "internalType": "address",
          "name": "account",
          "type": "address"
        }
      ],
      "name": "OwnableUnauthorizedAccount",
      "type": "error"
    },
    {
      "anonymous": false,
      "inputs": [
        {
          "indexed": false,
          "internalType": "uint32",
          "name": "gameId",
          "type": "uint32"
        },
        {
          "indexed": false,
          "internalType": "uint8",
          "name": "round",
          "type": "uint8"
        },
        {
          "indexed": false,
          "internalType": "address",
          "name": "sender",
          "type": "address"
        }
      ],
      "name": "CommitmentOpened",
      "type": "event"
    },
    {
      "anonymous": false,
      "inputs": [
        {
          "indexed": false,
          "internalType": "uint32",
          "name": "gameId",
          "type": "uint32"
        },
        {
          "indexed": false,
          "internalType": "uint8",
          "name": "round",
          "type": "uint8"
        },
        {
          "indexed": false,
          "internalType": "address",
          "name": "sender",
          "type": "address"
        }
      ],
      "name": "CommitmentSubmitted",
      "type": "event"
    },
    {
      "anonymous": false,
      "inputs": [
        {
          "indexed": false,
          "internalType": "uint32",
          "name": "gameId",
          "type": "uint32"
        }
      ],
      "name": "GameStarted",
      "type": "event"
    },
    {
      "anonymous": false,
      "inputs": [
        {
          "indexed": false,
          "internalType": "uint32",
          "name": "gameId",
          "type": "uint32"
        },
        {
          "indexed": false,
          "internalType": "enum IGuessingGame.GameState",
          "name": "state",
          "type": "uint8"
        }
      ],
      "name": "GameStateUpdated",
      "type": "event"
    },
    {
      "anonymous": false,
      "inputs": [
        {
          "indexed": false,
          "internalType": "uint32",
          "name": "gameId",
          "type": "uint32"
        },
        {
          "indexed": false,
          "internalType": "address",
          "name": "winner",
          "type": "address"
        }
      ],
      "name": "GameWinner",
      "type": "event"
    },
    {
      "anonymous": false,
      "inputs": [
        {
          "indexed": true,
          "internalType": "uint32",
          "name": "gameId",
          "type": "uint32"
        },
        {
          "indexed": true,
          "internalType": "address",
          "name": "sender",
          "type": "address"
        }
      ],
      "name": "NewGame",
      "type": "event"
    },
    {
      "anonymous": false,
      "inputs": [
        {
          "indexed": true,
          "internalType": "address",
          "name": "previousOwner",
          "type": "address"
        },
        {
          "indexed": true,
          "internalType": "address",
          "name": "newOwner",
          "type": "address"
        }
      ],
      "name": "OwnershipTransferred",
      "type": "event"
    },
    {
      "anonymous": false,
      "inputs": [
        {
          "indexed": true,
          "internalType": "uint32",
          "name": "gameId",
          "type": "uint32"
        },
        {
          "indexed": true,
          "internalType": "address",
          "name": "sender",
          "type": "address"
        }
      ],
      "name": "PlayerJoinGame",
      "type": "event"
    },
    {
      "anonymous": false,
      "inputs": [
        {
          "indexed": false,
          "internalType": "uint32",
          "name": "gameId",
          "type": "uint32"
        },
        {
          "indexed": false,
          "internalType": "uint8",
          "name": "round",
          "type": "uint8"
        }
      ],
      "name": "RoundDraw",
      "type": "event"
    },
    {
      "anonymous": false,
      "inputs": [
        {
          "indexed": false,
          "internalType": "uint32",
          "name": "gameId",
          "type": "uint32"
        },
        {
          "indexed": false,
          "internalType": "uint8",
          "name": "round",
          "type": "uint8"
        },
        {
          "indexed": false,
          "internalType": "address",
          "name": "winner",
          "type": "address"
        },
        {
          "indexed": false,
          "internalType": "uint16",
          "name": "bid",
          "type": "uint16"
        }
      ],
      "name": "RoundWinner",
      "type": "event"
    },
    {
      "inputs": [],
      "name": "commitmentVerifier",
      "outputs": [
        {
          "internalType": "contract ICommitmentVerifier",
          "name": "",
          "type": "address"
        }
      ],
      "stateMutability": "view",
      "type": "function"
    },
    {
      "inputs": [
        {
          "internalType": "uint32",
          "name": "gameId",
          "type": "uint32"
        }
      ],
      "name": "concludeRound",
      "outputs": [],
      "stateMutability": "nonpayable",
      "type": "function"
    },
    {
      "inputs": [
        {
          "internalType": "uint256",
          "name": "",
          "type": "uint256"
        }
      ],
      "name": "games",
      "outputs": [
        {
          "internalType": "enum IGuessingGame.GameState",
          "name": "state",
          "type": "uint8"
        },
        {
          "internalType": "uint8",
          "name": "currentRound",
          "type": "uint8"
        },
        {
          "internalType": "address",
          "name": "winner",
          "type": "address"
        },
        {
          "internalType": "uint256",
          "name": "startTime",
          "type": "uint256"
        },
        {
          "internalType": "uint256",
          "name": "lastUpdate",
          "type": "uint256"
        },
        {
          "internalType": "uint256",
          "name": "endTime",
          "type": "uint256"
        }
      ],
      "stateMutability": "view",
      "type": "function"
    },
    {
      "inputs": [
        {
          "internalType": "uint32",
          "name": "gameId",
          "type": "uint32"
        }
      ],
      "name": "getGame",
      "outputs": [
        {
          "components": [
            {
              "internalType": "address[]",
              "name": "players",
              "type": "address[]"
            },
            {
              "internalType": "uint8",
              "name": "currentRound",
              "type": "uint8"
            },
            {
              "internalType": "address[]",
              "name": "roundWinners",
              "type": "address[]"
            },
            {
              "internalType": "enum IGuessingGame.GameState",
              "name": "state",
              "type": "uint8"
            },
            {
              "internalType": "address",
              "name": "winner",
              "type": "address"
            },
            {
              "internalType": "uint256",
              "name": "startTime",
              "type": "uint256"
            },
            {
              "internalType": "uint256",
              "name": "lastUpdate",
              "type": "uint256"
            },
            {
              "internalType": "uint256",
              "name": "endTime",
              "type": "uint256"
            }
          ],
          "internalType": "struct IGuessingGame.GameView",
          "name": "",
          "type": "tuple"
        }
      ],
      "stateMutability": "view",
      "type": "function"
    },
    {
      "inputs": [
        {
          "internalType": "uint32",
          "name": "gameId",
          "type": "uint32"
        }
      ],
      "name": "getGameHost",
      "outputs": [
        {
          "internalType": "address",
          "name": "",
          "type": "address"
        }
      ],
      "stateMutability": "view",
      "type": "function"
    },
    {
      "inputs": [
        {
          "internalType": "uint32",
          "name": "gameId",
          "type": "uint32"
        },
        {
          "internalType": "uint8",
          "name": "round",
          "type": "uint8"
        },
        {
          "internalType": "address",
          "name": "player",
          "type": "address"
        }
      ],
      "name": "getPlayerCommitment",
      "outputs": [
        {
          "components": [
            {
              "internalType": "uint256",
              "name": "submission",
              "type": "uint256"
            },
            {
              "internalType": "uint256",
              "name": "nullifier",
              "type": "uint256"
            }
          ],
          "internalType": "struct IGuessingGame.Commitment",
          "name": "",
          "type": "tuple"
        }
      ],
      "stateMutability": "view",
      "type": "function"
    },
    {
      "inputs": [
        {
          "internalType": "uint32",
          "name": "gameId",
          "type": "uint32"
        },
        {
          "internalType": "uint8",
          "name": "round",
          "type": "uint8"
        },
        {
          "internalType": "address",
          "name": "player",
          "type": "address"
        }
      ],
      "name": "getPlayerOpening",
      "outputs": [
        {
          "internalType": "uint16",
          "name": "",
          "type": "uint16"
        }
      ],
      "stateMutability": "view",
      "type": "function"
    },
    {
      "inputs": [
        {
          "internalType": "uint32",
          "name": "gameId",
          "type": "uint32"
        }
      ],
      "name": "joinGame",
      "outputs": [],
      "stateMutability": "nonpayable",
      "type": "function"
    },
    {
      "inputs": [],
      "name": "newGame",
      "outputs": [
        {
          "internalType": "uint32",
          "name": "gameId",
          "type": "uint32"
        }
      ],
      "stateMutability": "nonpayable",
      "type": "function"
    },
    {
      "inputs": [],
      "name": "nextGameId",
      "outputs": [
        {
          "internalType": "uint32",
          "name": "",
          "type": "uint32"
        }
      ],
      "stateMutability": "view",
      "type": "function"
    },
    {
      "inputs": [
        {
          "internalType": "uint32",
          "name": "gameId",
          "type": "uint32"
        },
        {
          "internalType": "uint256[24]",
          "name": "proof",
          "type": "uint256[24]"
        },
        {
          "internalType": "uint256[4]",
          "name": "pubSignals",
          "type": "uint256[4]"
        }
      ],
      "name": "openCommitment",
      "outputs": [],
      "stateMutability": "nonpayable",
      "type": "function"
    },
    {
      "inputs": [],
      "name": "openingVerifier",
      "outputs": [
        {
          "internalType": "contract IOpeningVerifier",
          "name": "",
          "type": "address"
        }
      ],
      "stateMutability": "view",
      "type": "function"
    },
    {
      "inputs": [],
      "name": "owner",
      "outputs": [
        {
          "internalType": "address",
          "name": "",
          "type": "address"
        }
      ],
      "stateMutability": "view",
      "type": "function"
    },
    {
      "inputs": [],
      "name": "renounceOwnership",
      "outputs": [],
      "stateMutability": "nonpayable",
      "type": "function"
    },
    {
      "inputs": [
        {
          "internalType": "uint32",
          "name": "gameId",
          "type": "uint32"
        }
      ],
      "name": "startGame",
      "outputs": [],
      "stateMutability": "nonpayable",
      "type": "function"
    },
    {
      "inputs": [
        {
          "internalType": "uint32",
          "name": "gameId",
          "type": "uint32"
        },
        {
          "internalType": "uint256[24]",
          "name": "proof",
          "type": "uint256[24]"
        },
        {
          "internalType": "uint256[2]",
          "name": "pubSignals",
          "type": "uint256[2]"
        }
      ],
      "name": "submitCommitment",
      "outputs": [],
      "stateMutability": "nonpayable",
      "type": "function"
    },
    {
      "inputs": [
        {
          "internalType": "address",
          "name": "newOwner",
          "type": "address"
        }
      ],
      "name": "transferOwnership",
      "outputs": [],
      "stateMutability": "nonpayable",
      "type": "function"
    }
  ],
  "bytecode": "0x60806040523462000038576200001f620000186200016d565b90620002d8565b620000296200003e565b613364620004bf823961336490f35b62000044565b60405190565b600080fd5b601f801991011690565b634e487b7160e01b600052604160045260246000fd5b90620000759062000049565b810190811060018060401b038211176200008e57604052565b62000053565b90620000ab620000a36200003e565b928362000069565b565b600080fd5b60018060a01b031690565b620000c890620000b2565b90565b620000d690620000bd565b90565b620000e481620000cb565b03620000ec57565b600080fd5b905051906200010082620000d9565b565b6200010d90620000bd565b90565b6200011b8162000102565b036200012357565b600080fd5b90505190620001378262000110565b565b91906040838203126200016757806200015a620001649260008601620000f1565b9360200162000128565b90565b620000ad565b620001906200382380380380620001848162000094565b92833981019062000139565b9091565b60001b90565b90620001ab63ffffffff9162000194565b9181191691161790565b90565b63ffffffff1690565b90565b620001dd620001d7620001e392620001b5565b620001c1565b620001b8565b90565b90565b9062000203620001fd6200020b92620001c4565b620001e6565b82546200019a565b9055565b906200022260018060a01b039162000194565b9181191691161790565b620002456200023f6200024b92620000b2565b620001c1565b620000b2565b90565b62000259906200022c565b90565b62000267906200024e565b90565b90565b9062000287620002816200028f926200025c565b6200026a565b82546200020f565b9055565b6200029e906200022c565b90565b620002ac9062000293565b90565b90565b90620002cc620002c6620002d492620002a1565b620002af565b82546200020f565b9055565b90620003036200030b92620002ed3362000364565b620002fb60006004620001e9565b60016200026d565b6002620002b2565b565b62000326620003206200032c92620001b5565b620001c1565b620000b2565b90565b6200033a906200030d565b90565b6200034890620000bd565b9052565b919062000362906000602085019401906200033d565b565b80620003866200037f6200037960006200032f565b620000bd565b91620000bd565b146200039957620003979062000451565b565b620003ca620003a960006200032f565b620003b36200003e565b918291631e4fbdf760e01b8352600483016200034c565b0390fd5b60001c90565b60018060a01b031690565b620003ee620003f491620003ce565b620003d4565b90565b620004039054620003df565b90565b62000411906200022c565b90565b6200041f9062000406565b90565b90565b906200043f62000439620004479262000414565b62000422565b82546200020f565b9055565b60000190565b6200045d6000620003f7565b6200046a82600062000425565b90620004a26200049b7f8be0079c531659141344cd1fd0a4f28419497f9722a3daafe3b4186f6b6457e09362000414565b9162000414565b91620004ad6200003e565b80620004b9816200044b565b0390a356fe60806040526004361015610013575b610c6f565b61001e60003561012d565b8063117a5b90146101285780632915724f1461012357806347b9c8bb1461011e5780635d682cee14610119578063715018a6146101145780637d03f5f31461010f578063812f0fb01461010a57806389f45339146101055780638da5cb5b146101005780639335f348146100fb578063b135bbb0146100f6578063b6f69086146100f1578063c6e89258146100ec578063d17d0d63146100e7578063d8958f17146100e2578063dfd70c75146100dd5763f2fde38b0361000e57610c3c565b610be7565b610b76565b610ad1565b610a9c565b6109cd565b610946565b6108cd565b6107eb565b6107a2565b61076d565b6105d1565b61057b565b610537565b610498565b610465565b6103d7565b60e01c90565b60405190565b600080fd5b600080fd5b90565b61014f81610143565b0361015657565b600080fd5b9050359061016882610146565b565b90602082820312610184576101819160000161015b565b90565b61013e565b634e487b7160e01b600052603260045260246000fd5b5490565b600052602060002090565b6101b78161019f565b8210156101d2576101c9600a916101a3565b91020190600090565b610189565b60001c90565b60ff1690565b6101ef6101f4916101d7565b6101dd565b90565b61020190546101e3565b90565b60ff1690565b61021661021b916101d7565b610204565b90565b610228905461020a565b90565b60018060a01b031690565b610242610247916101d7565b61022b565b90565b6102549054610236565b90565b90565b61026661026b916101d7565b610257565b90565b610278905461025a565b90565b6003906102878261019f565b8110156102e857610297916101ae565b50906102a5600083016101f7565b916102b26002820161021e565b916102bf6006830161024a565b916102cc6007820161026e565b916102e560096102de6008850161026e565b930161026e565b90565b600080fd5b634e487b7160e01b600052602160045260246000fd5b6005111561030d57565b6102ed565b9061031c82610303565b565b61032790610312565b90565b6103339061031e565b9052565b60ff1690565b61034690610337565b9052565b60018060a01b031690565b61035e9061034a565b90565b61036a90610355565b9052565b61037790610143565b9052565b91946103c46103ce929897956103ba60a0966103b06103d59a6103a660c08a019e60008b019061032a565b602089019061033d565b6040870190610361565b606085019061036e565b608083019061036e565b019061036e565b565b3461040e5761040a6103f26103ed36600461016a565b61027b565b92610401969496929192610133565b9687968761037b565b0390f35b610139565b63ffffffff1690565b61042581610413565b0361042c57565b600080fd5b9050359061043e8261041c565b565b9060208282031261045a5761045791600001610431565b90565b61013e565b60000190565b346104935761047d610478366004610440565b61106b565b610485610133565b8061048f8161045f565b0390f35b610139565b346104c6576104b06104ab366004610440565b61194c565b6104b8610133565b806104c28161045f565b0390f35b610139565b600080fd5b919060206018028301116104e057565b6104cb565b919060206004028301116104f557565b6104cb565b90916103a0828403126105325761052f6105178460008501610431565b9361052581602086016104d0565b93610320016104e5565b90565b61013e565b346105665761055061054a3660046104fa565b916120a2565b610558610133565b806105628161045f565b0390f35b610139565b600091031261057657565b61013e565b346105a95761058b36600461056b565b6105936120fd565b61059b610133565b806105a58161045f565b0390f35b610139565b6105b790610413565b9052565b91906105cf906000602085019401906105ae565b565b34610601576105e136600461056b565b6105fd6105ec612259565b6105f4610133565b918291826105bb565b0390f35b610139565b5190565b60209181520190565b60200190565b61062290610355565b9052565b9061063381602093610619565b0190565b60200190565b9061065a61065461064d84610606565b809361060a565b92610613565b9060005b81811061066b5750505090565b90919261068461067e6001928651610626565b94610637565b910191909161065e565b61069790610337565b9052565b6106a49061031e565b9052565b6106b190610143565b9052565b906107519060e0806106fe6106da61010085016000880151868203600088015261063d565b6106ec6020880151602087019061068e565b6040870151858203604087015261063d565b946107116060820151606086019061069b565b61072360808201516080860190610619565b61073560a082015160a08601906106a8565b61074760c082015160c08601906106a8565b01519101906106a8565b90565b61076a91602082019160008184039101526106b5565b90565b3461079d57610799610788610783366004610440565b61261b565b610790610133565b91829182610754565b0390f35b610139565b346107d0576107ba6107b5366004610440565b612860565b6107c2610133565b806107cc8161045f565b0390f35b610139565b91906107e990600060208501940190610361565b565b3461081b576107fb36600461056b565b610817610806612870565b61080e610133565b918291826107d5565b0390f35b610139565b61082981610337565b0361083057565b600080fd5b9050359061084282610820565b565b61084d81610355565b0361085457565b600080fd5b9050359061086682610844565b565b909160608284031261089e5761089b6108848460008501610431565b936108928160208601610835565b93604001610859565b90565b61013e565b61ffff1690565b6108b3906108a3565b9052565b91906108cb906000602085019401906108aa565b565b346108fe576108fa6108e96108e3366004610868565b91612915565b6108f1610133565b918291826108b7565b0390f35b610139565b1c90565b63ffffffff1690565b6109209060086109259302610903565b610907565b90565b906109339154610910565b90565b6109436004600090610928565b90565b346109765761095636600461056b565b610972610961610936565b610969610133565b918291826105bb565b0390f35b610139565b9190602060020283011161098b57565b6104cb565b9091610360828403126109c8576109c56109ad8460008501610431565b936109bb81602086016104d0565b936103200161097b565b90565b61013e565b346109fc576109e66109e0366004610990565b91612e32565b6109ee610133565b806109f88161045f565b0390f35b610139565b60018060a01b031690565b610a1c906008610a219302610903565b610a01565b90565b90610a2f9154610a0c565b90565b610a3f6001600090610a24565b90565b90565b610a59610a54610a5e9261034a565b610a42565b61034a565b90565b610a6a90610a45565b90565b610a7690610a61565b90565b610a8290610a6d565b9052565b9190610a9a90600060208501940190610a79565b565b34610acc57610aac36600461056b565b610ac8610ab7610a32565b610abf610133565b91829182610a86565b0390f35b610139565b34610b0157610afd610aec610ae7366004610440565b612ec1565b610af4610133565b918291826107d5565b0390f35b610139565b60018060a01b031690565b610b21906008610b269302610903565b610b06565b90565b90610b349154610b11565b90565b610b446002600090610b29565b90565b610b5090610a61565b90565b610b5c90610b47565b9052565b9190610b7490600060208501940190610b53565b565b34610ba657610b8636600461056b565b610ba2610b91610b37565b610b99610133565b91829182610b60565b0390f35b610139565b90602080610bcf93610bc5600082015160008601906106a8565b01519101906106a8565b565b9190610be590600060408501940190610bab565b565b34610c1857610c14610c03610bfd366004610868565b91612fe4565b610c0b610133565b91829182610bd1565b0390f35b610139565b90602082820312610c3757610c3491600001610859565b90565b61013e565b34610c6a57610c54610c4f366004610c1d565b613068565b610c5c610133565b80610c668161045f565b0390f35b610139565b600080fd5b610c80610c85916101d7565b610907565b90565b610c929054610c74565b90565b80610cb1610cab610ca66004610c88565b610413565b91610413565b1015610cc257610cc090610d0c565b565b610cca610133565b630e5ea16760e41b815280610ce16004820161045f565b0390fd5b90565b916020610d0a929493610d036040820196600083019061032a565b019061032a565b565b80610d23610d1d60009260036101ae565b50610ce5565b90610d30600083016101f7565b610d42610d3c83610312565b91610312565b03610d54575050610d5290610f52565b565b6000610d619192016101f7565b90610d82610d6d610133565b928392628c577560e41b845260048401610ce8565b0390fd5b90565b610d9d610d98610da292610d86565b610a42565b610337565b90565b634e487b7160e01b600052601160045260246000fd5b610dc490610337565b60ff8114610dd25760010190565b610da5565b5490565b610def610dea610df492610337565b610a42565b610143565b90565b600052602060002090565b610e0b81610dd7565b821015610e2657610e1d600191610df7565b91020190600090565b610189565b610e3b906008610e409302610903565b61022b565b90565b90610e4e9154610e2b565b90565b90565b634e487b7160e01b600052604160045260246000fd5b600052602060002090565b5490565b610e8281610e75565b821015610e9d57610e94600191610e6a565b91020190600090565b610189565b1b90565b91906008610ec6910291610ec060018060a01b0384610ea2565b92610ea2565b9181191691161790565b610ed990610a61565b90565b90565b9190610ef5610ef0610efd93610ed0565b610edc565b908354610ea6565b9055565b9081549168010000000000000000831015610f315782610f29916001610f2f95018155610e79565b90610edf565b565b610e54565b610f4a610f45610f4f92610413565b610a42565b610413565b90565b90610f68610f62600384906101ae565b50610ce5565b90610f736000610d89565b5b80610f92610f8c610f8760018701610dd7565b610143565b91610ddb565b1015610ffa57610faf610fa9600185018390610e02565b90610e43565b610fc1610fbb33610355565b91610355565b14610fd457610fcf90610dbb565b610f74565b610ff633610fe0610133565b91829163729ca8e760e11b8352600483016107d5565b0390fd5b50919061100c60016110139201610e51565b3390610f01565b61101f816000906131f3565b3361105361104d7f0376ec1451fb8d69bd1557f9ea553b81ba8052dfbea4c7aa3c0160c43ccf2fcd93610f36565b91610ed0565b9161105c610133565b806110668161045f565b0390a3565b61107490610c95565b565b8061109261108c6110876004610c88565b610413565b91610413565b10156110a3576110a1906110ea565b565b6110ab610133565b630e5ea16760e41b8152806110c26004820161045f565b0390fd5b9160206110e89294936110e1604082019660008301906105ae565b0190610361565b565b806111176111116001611108611102600386906101ae565b50610ce5565b01600090610e02565b90610e43565b61112961112333610355565b91610355565b0361113a575061113890611161565b565b339061115d611147610133565b9283926352f3537f60e01b8452600484016110c6565b0390fd5b8061117861117260039260036101ae565b50610ce5565b90611185600083016101f7565b61119761119183610312565b91610312565b036111a95750506111a790611502565b565b60006111b69192016101f7565b906111d76111c2610133565b928392628c577560e41b845260048401610ce8565b0390fd5b67ffffffffffffffff1690565b6111fc6111f761120192610143565b610a42565b6111db565b90565b61121861121361121d92610d86565b610a42565b6111db565b90565b611229906111db565b67ffffffffffffffff811461123e5760010190565b610da5565b61125761125261125c926111db565b610a42565b610143565b90565b61127361126e61127892610337565b610a42565b610337565b90565b906112859061125f565b600052602052604060002090565b9061129d90610ed0565b600052602052604060002090565b61ffff1690565b6112be6112c3916101d7565b6112ab565b90565b6112d090546112b2565b90565b90565b6112ea6112e56112ef926112d3565b610a42565b6108a3565b90565b6112fe611304916108a3565b916108a3565b029061130f826108a3565b91820361131857565b610da5565b61133161132c611336926108a3565b610a42565b6111db565b90565b61134561134b916111db565b916111db565b019067ffffffffffffffff821161135e57565b610da5565b634e487b7160e01b600052601260045260246000fd5b61138561138b916111db565b916111db565b908115611396570490565b611363565b90565b6113b26113ad6113b79261139b565b610a42565b6111db565b90565b6113f06113f7946113e66060949897956113dc608086019a60008701906105ae565b602085019061033d565b6040830190610361565b01906108aa565b565b91602061141b929493611414604082019660008301906105ae565b019061033d565b565b90565b61143461142f6114399261141d565b610a42565b610337565b90565b6114466003611420565b90565b61145d6114586114629261139b565b610a42565b610337565b90565b61147161147791610337565b91610337565b019060ff821161148357565b610da5565b60001b90565b9061149a60ff91611488565b9181191691161790565b90565b906114bc6114b76114c39261125f565b6114a4565b825461148e565b9055565b906114d860018060a01b0391611488565b9181191691161790565b906114f76114f26114fe92610ed0565b610edc565b82546114c7565b9055565b611517611511600383906101ae565b50610ce5565b61152b61152660018301610dd7565b6111e8565b916115386002830161021e565b906115436000611204565b9461154e6000611204565b955b8661156e61156861156360018901610dd7565b610143565b91611243565b10156115dd576115d16115d7916115cb6115c66115b56115b061159d6115978e60018e01610e02565b90610e43565b6115ab60058d018c9061127b565b611293565b6112c6565b6115c06103e86112d6565b906112f2565b61131d565b90611339565b96611220565b95611550565b6115eb929591939650611379565b936116046115fe60018501600090610e02565b90610e43565b9361164b61163c61162b61162661161f60058901879061127b565b8990611293565b6112c6565b6116366103e86112d6565b906112f2565b611646889161131d565b61322f565b92600095611659600161139e565b965b8761167961167361166e60018b01610dd7565b610143565b91611243565b101561174757611696611690600189018a90610e02565b90610e43565b6116dc6116cd6116bc6116b76116b060058d018b9061127b565b8590611293565b6112c6565b6116c76103e86112d6565b906112f2565b6116d78c9161131d565b61322f565b806116ef6116e98a6111db565b916111db565b1460001461170c575050506117066001975b611220565b9661165b565b8099929961172261171c8a6111db565b916111db565b10611733575b505061170690611701565b925095509650936117066000979038611728565b92965093509395506000146118d55783907fd91d09e1ae5d9e92ba174c808658c9834ff0c5affe15d59f47ff48c2739997a89161178e611785610133565b928392836113f9565b0390a15b61179c6000610d89565b916117a76000610d89565b5b806117c66117c06117bb60038a01610dd7565b610143565b91610ddb565b101561181e576117e36117dd600388018390610e02565b90610e43565b6117f56117ef85610355565b91610355565b14611809575b61180490610dbb565b6117a8565b9261181661180491610dbb565b9390506117fb565b5093929161183b61183561183061143c565b610337565b91610337565b1460001461189a576118546118979360068391016114e2565b81907f42a6ea4a404209acf2556b8a45d50b968bc0d9323540042586ba912a30c5d7369161188c611883610133565b928392836110c6565b0390a16004906131f3565b5b565b506118c86118d0926118c260026118b16001611449565b9201916118bd8361021e565b611465565b906114a7565b6001906131f3565b611898565b6118eb6118e460038701610e51565b8390610f01565b83819061194461191161190c611905879660058c0161127b565b8790611293565b6112c6565b7f24c05ed18a5f698a764dcd3504f1c43fc1e6e385a4e88d90e6e4712781e021e69461193b610133565b948594856113ba565b0390a1611792565b61195590611076565b565b91908261197561196f61196a6004610c88565b610413565b91610413565b101561198657611984926119ae565b565b61198e610133565b630e5ea16760e41b8152806119a56004820161045f565b0390fd5b151590565b90916119c46119be8360036101ae565b50610ce5565b926000936119d26000610d89565b5b806119f16119eb6119e660018601610dd7565b610143565b91610ddb565b1015611a7757611a0e611a08600184018390610e02565b90610e43565b611a20611a1a33610355565b91610355565b14611a3357611a2e90610dbb565b6119d3565b505090919250611a4560015b156119a9565b611a5457611a5292611a85565b565b611a5c610133565b63a242193d60e01b815280611a736004820161045f565b0390fd5b5050909192611a4590611a3f565b92919083611a9f611a9960029660036101ae565b50610ce5565b94611aac600087016101f7565b611abe611ab883610312565b91610312565b03611ad15750611acf939450611d63565b565b611add600087016101f7565b90611afe611ae9610133565b928392628c577560e41b845260048401610ce8565b0390fd5b90611b0c9061125f565b600052602052604060002090565b90611b2490610ed0565b600052602052604060002090565b90565b906004811015611b46576020020190565b610189565b611b5f611b5a611b6492610d86565b610a42565b610143565b90565b35611b7181610146565b90565b611b88611b83611b8d9261139b565b610a42565b610143565b90565b604090611bba611bc19496959396611bb0606084019860008501906105ae565b602083019061033d565b0190610361565b565b611bcf611bd4916101d7565b610b06565b90565b611be19054611bc3565b90565b601f801991011690565b90611bf890611be4565b810190811067ffffffffffffffff821117611c1257604052565b610e54565b60e01b90565b611c26816119a9565b03611c2d57565b600080fd5b90505190611c3f82611c1d565b565b90602082820312611c5b57611c5891600001611c32565b90565b61013e565b9037565b611c719161030091611c60565b565b611c7f91608091611c60565b565b91610300611ca5929493611c9e6103808201966000830190611c64565b0190611c73565b565b90565b611cbe611cb9611cc392611ca7565b610a42565b610143565b90565b611cda611cd5611cdf92610143565b610a42565b6108a3565b90565b90611cef61ffff91611488565b9181191691161790565b611d0d611d08611d12926108a3565b610a42565b6108a3565b90565b90565b90611d2d611d28611d3492611cf9565b611d15565b8254611ce2565b9055565b6001611d449101610143565b90565b611d5b611d56611d6092610d86565b610a42565b6108a3565b90565b9091611d7a611d74600384906101ae565b50610ce5565b90611d876002830161021e565b93611da8611da3611d9c600486018890611b02565b3390611b1a565b611b32565b611db46000820161026e565b611de1611ddb611dd6611dd187611dcb6000611b4b565b90611b35565b611b67565b610143565b91610143565b1415908115612060575b50612037576020611e04611dff6002611bd7565b610b47565b636183f6b49290611e278594611e32611e1b610133565b96879586948594611c17565b845260048401611c81565b03915afa8091600092612007575b5015600014611fbf57506001611f9757611e78611e73611e6e611e95935b611e686002611caa565b90611b35565b611b67565b611cc6565b611e90611e8960058501879061127b565b3390611293565b611d18565b81833391611ecf7f8091531c95e42cbd103ed41c7b1f94540748b6acf3187990fbd8e9c9af44ea4493611ec6610133565b93849384611b90565b0390a1600092611edf6000611b4b565b5b80611efe611ef8611ef360018701610dd7565b610143565b91610143565b1015611f8a57611f39611f34611f21611f1b600187018590610e02565b90610e43565b611f2f60058701869061127b565b611293565b6112c6565b611f4c611f466000611d47565b916108a3565b14611f5f57611f5a90611d38565b611ee0565b5050509050611f7060015b156119a9565b611f78575b50565b611f84906003906131f3565b38611f75565b50505090611f7090611f6a565b5050611fbb33611fa5610133565b938493631c75226560e11b855260048501611b90565b0390fd5b611fc990156119a9565b611fdf57611e78611e73611e6e611e9593611e5e565b505061200333611fed610133565b938493631c75226560e11b855260048501611b90565b0390fd5b61202991925060203d8111612030575b6120218183611bee565b810190611c41565b9038611e40565b503d612017565b50505061205c33612046610133565b93849363ffd646e160e01b855260048501611b90565b0390fd5b61206d915060010161026e565b61209a61209461208f61208a866120846001611b74565b90611b35565b611b67565b610143565b91610143565b141538611deb565b906120ad9291611957565b565b6120b761326b565b6120bf6120e9565b565b6120d56120d06120da92610d86565b610a42565b61034a565b90565b6120e6906120c1565b90565b6120fb6120f660006120dd565b6132c0565b565b6121056120af565b565b600090565b90565b5490565b600052602060002090565b6121278161210f565b82101561214257612139600a91612113565b91020190600090565b610189565b6121508161210f565b68010000000000000000811015612174576121709160018201815561211e565b9091565b610e54565b61218290610312565b90565b90565b9061219d6121986121a492612179565b612185565b825461148e565b9055565b906121b560001991611488565b9181191691161790565b6121d36121ce6121d892610143565b610a42565b610143565b90565b90565b906121f36121ee6121fa926121bf565b6121db565b82546121a8565b9055565b61220790610413565b63ffffffff81146122185760010190565b610da5565b9061222c63ffffffff91611488565b9181191691161790565b90565b9061224e61224961225592610f36565b612236565b825461221d565b9055565b612261612107565b506122ba61228061227a612275600361210c565b612147565b50610ce5565b61229661228f60018301610e51565b3390610f01565b6122a36000808301612188565b6122b042600783016121de565b60084291016121de565b6122c46004610c88565b6122d76122d0826121fe565b6004612239565b90813361230d6123077f4d02ce21c9b87cd569227bcf4c505c9c57c55b19697fcd04316a57d69ed52a0193610f36565b91610ed0565b91612316610133565b806123208161045f565b0390a3565b90612338612331610133565b9283611bee565b565b612345610100612325565b90565b606090565b600090565b600090565b600090565b600090565b61236961233a565b906020808080808080808961237c612348565b81520161238761234d565b815201612392612348565b81520161239d612352565b8152016123a8612357565b8152016123b361235c565b8152016123be61235c565b8152016123c961235c565b81525050565b6123d7612361565b90565b90806123f76123f16123ec6004610c88565b610413565b91610413565b1015612409576124069161251b565b90565b612411610133565b630e5ea16760e41b8152806124286004820161045f565b0390fd5b612437610100612325565b90565b6124449054610236565b90565b60010190565b9061246a61246461245d84610dd7565b809361060a565b92610df7565b9060005b81811061247b5750505090565b90919261249b6124956001926124908761243a565b610626565b94612447565b910191909161246e565b906124af9161244d565b90565b906124d26124cb926124c2610133565b938480926124a5565b0383611bee565b565b6124dd906124b2565b90565b52565b906124ed90610337565b9052565b906124fb90610312565b9052565b9061250990610355565b9052565b9061251790610143565b9052565b50600390612528916101ae565b5061253290610ce5565b8060010190806002016125449061021e565b908060030181600001612556906101f7565b826006016125639061024a565b90836007016125719061026e565b928460080161257f9061026e565b9460090161258c9061026e565b9561259561242c565b9761259f906124d4565b60008901906125ad916124e0565b60208801906125bb916124e3565b6125c4906124d4565b60408701906125d2916124e0565b60608601906125e0916124f1565b60808501906125ee916124ff565b60a08401906125fc9161250d565b60c083019061260a9161250d565b60e08201906126189161250d565b90565b61262c906126276123cf565b6123da565b90565b8061264b6126456126406004610c88565b610413565b91610413565b101561265c5761265a9061267f565b565b612664610133565b630e5ea16760e41b81528061267b6004820161045f565b0390fd5b806126ac6126a6600161269d612697600386906101ae565b50610ce5565b01600090610e02565b90610e43565b6126be6126b833610355565b91610355565b036126cf57506126cd906126f6565b565b33906126f26126dc610133565b9283926352f3537f60e01b8452600484016110c6565b0390fd5b8061270d61270760009260036101ae565b50610ce5565b9061271a600083016101f7565b61272c61272683610312565b91610312565b0361273e57505061273c906127b5565b565b600061274b9192016101f7565b9061276c612757610133565b928392628c577560e41b845260048401610ce8565b0390fd5b61278461277f6127899261141d565b610a42565b6108a3565b90565b6127966003612770565b90565b6127ad6127a86127b2926108a3565b610a42565b610143565b90565b6127d560016127cf6127c9600385906101ae565b50610ce5565b01610dd7565b6127ee6127e86127e361278c565b612799565b91610143565b1061283a576127ff816001906131f3565b6128357fe6aebc56b3bafc90ff9fcf8f838e304f2b308c7b3cc63fde56fb1806a03968fe9161282c610133565b918291826105bb565b0390a1565b61285c90612846610133565b9182916376293c1d60e01b8352600483016105bb565b0390fd5b6128699061262f565b565b600090565b61287861286b565b50612883600061024a565b90565b600090565b929190806128aa6128a461289f6004610c88565b610413565b91610413565b10156128bc576128b9936128df565b90565b6128c4610133565b630e5ea16760e41b8152806128db6004820161045f565b0390fd5b61290d9260056129026128fc6129129795612908955060036101ae565b50610ce5565b0161127b565b611293565b6112c6565b90565b906129289291612923612886565b61288b565b90565b91908261294961294361293e6004610c88565b610413565b91610413565b101561295a576129589261297d565b565b612962610133565b630e5ea16760e41b8152806129796004820161045f565b0390fd5b909161299361298d8360036101ae565b50610ce5565b926000936129a16000610d89565b5b806129c06129ba6129b560018601610dd7565b610143565b91610ddb565b1015612a46576129dd6129d7600184018390610e02565b90610e43565b6129ef6129e933610355565b91610355565b14612a02576129fd90610dbb565b6129a2565b505090919250612a1460015b156119a9565b612a2357612a2192612a54565b565b612a2b610133565b63a242193d60e01b815280612a426004820161045f565b0390fd5b5050909192612a1490612a0e565b92919083612a6e612a6860019660036101ae565b50610ce5565b94612a7b600087016101f7565b612a8d612a8783610312565b91610312565b03612aa05750612a9e939450612b97565b565b612aac600087016101f7565b90612acd612ab8610133565b928392628c577560e41b845260048401610ce8565b0390fd5b612add612ae2916101d7565b610a01565b90565b612aef9054612ad1565b90565b612afe91604091611c60565b565b91610300612b24929493612b1d6103408201966000830190611c64565b0190612af2565b565b906002811015612b37576020020190565b610189565b612b466040612325565b90565b612b539051610143565b90565b90612b8360206001612b8994612b7b60008201612b7560008801612b49565b906121de565b019201612b49565b906121de565b565b90612b9591612b56565b565b9091612bae612ba8600384906101ae565b50610ce5565b90612bbb6002830161021e565b936020612bd0612bcb6001612ae5565b610a6d565b63c0e9d81c9290612bf38594612bfe612be7610133565b96879586948594611c17565b845260048401612b00565b03915afa8091600092612e02575b5015600014612dc357506001612d9b57612c97905b612c7a612c5c612c57612c46612c4185612c3b6000611b4b565b90612b26565b611b67565b93612c516001611b74565b90612b26565b611b67565b612c71612c67612b3c565b936000850161250d565b6020830161250d565b612c92612c8b600485018790611b02565b3390611b1a565b612b8b565b81833391612cd17f2a2e685f4b35ad9685bb75094db1851f4d30e370bc4a4c32d1103a9626fed5a593612cc8610133565b93849384611b90565b0390a1600092612ce16000611b4b565b5b80612d00612cfa612cf560018701610dd7565b610143565b91610143565b1015612d8e57612d3d6001612d37612d24612d1e8388018690610e02565b90610e43565b612d32600488018790611b02565b611b1a565b0161026e565b612d50612d4a6000611b4b565b91610143565b14612d6357612d5e90611d38565b612ce2565b5050509050612d7460015b156119a9565b612d7c575b50565b612d88906002906131f3565b38612d79565b50505090612d7490612d6e565b5050612dbf33612da9610133565b938493630ff25d5d60e11b855260048501611b90565b0390fd5b612dcd90156119a9565b612dda57612c9790612c21565b5050612dfe33612de8610133565b938493630ff25d5d60e11b855260048501611b90565b0390fd5b612e2491925060203d8111612e2b575b612e1c8183611bee565b810190611c41565b9038612c0c565b503d612e12565b90612e3d929161292b565b565b9080612e5c612e56612e516004610c88565b610413565b91610413565b1015612e6e57612e6b91612e91565b90565b612e76610133565b630e5ea16760e41b815280612e8d6004820161045f565b0390fd5b6001612eaf612ea9612ebe94612eb8945060036101ae565b50610ce5565b01600090610e02565b90610e43565b90565b612ed290612ecd61286b565b612e3f565b90565b612edf6040612325565b90565b612eea612ed5565b9060208083612ef761235c565b815201612f0261235c565b81525050565b612f10612ee2565b90565b92919080612f32612f2c612f276004610c88565b610413565b91610413565b1015612f4457612f4193612fae565b90565b612f4c610133565b630e5ea16760e41b815280612f636004820161045f565b0390fd5b90612fa0612f976001612f78612ed5565b94612f91612f886000830161026e565b6000880161250d565b0161026e565b6020840161250d565b565b612fab90612f67565b90565b612fdc926004612fd1612fcb612fe19795612fd7955060036101ae565b50610ce5565b01611b02565b611b1a565b612fa2565b90565b90612ff79291612ff2612f08565b612f13565b90565b61300b9061300661326b565b61300d565b565b8061302961302361301e60006120dd565b610355565b91610355565b1461303957613037906132c0565b565b61306461304660006120dd565b61304e610133565b918291631e4fbdf760e01b8352600483016107d5565b0390fd5b61307190612ffa565b565b908161309061308a6130856004610c88565b610413565b91610413565b10156130a15761309f916130c4565b565b6130a9610133565b630e5ea16760e41b8152806130c06004820161045f565b0390fd5b906130e460006130de6130d88560036101ae565b50610ce5565b016101f7565b6130f76130f16004610312565b91610312565b14613107576131059161314e565b565b61310f610133565b637934aa7b60e01b8152806131266004820161045f565b0390fd5b91602061314c929493613145604082019660008301906105ae565b019061032a565b565b61316361315d600383906101ae565b50610ce5565b6131708360008301612188565b61317d42600883016121de565b8261319161318b6004610312565b91610312565b146131d4575b50907f256ace825f57d7b5916c17edd2ef1b56760a9754eb5a14ea1a15dd7adf890c47916131cf6131c6610133565b9283928361312a565b0390a1565b8060096131e660086131ed940161026e565b91016121de565b38613197565b906131fd91613073565b565b600090565b613210613216916111db565b916111db565b90039067ffffffffffffffff821161322a57565b610da5565b906132386131ff565b508161324c613246836111db565b916111db565b101561325f579061325c91613204565b90565b61326891613204565b90565b613273612870565b61328c613286613281613321565b610355565b91610355565b0361329357565b6132bc61329e613321565b6132a6610133565b91829163118cdaa760e01b8352600483016107d5565b0390fd5b6132ca600061024a565b6132d58260006114e2565b906133096133037f8be0079c531659141344cd1fd0a4f28419497f9722a3daafe3b4186f6b6457e093610ed0565b91610ed0565b91613312610133565b8061331c8161045f565b0390a3565b61332961286b565b50339056fea264697066735822122019a5249531cb28cc4812843a27752ce761eb1cb853d9aaf7bee7e74ea80a520864736f6c63430008170033",
  "linkReferences": {},
  "deployedLinkReferences": {}
}