{
  "_format": "hh-sol-artifact-1",
  "contractName": "GuessingGame",
  "sourceName": "contracts/GuessingGame.sol",
  "abi": [
    {
      "inputs": [
        {
          "internalType": "contract ICommitmentVerifier",
          "name": "cVerAddr",
          "type": "address"
        },
        {
          "internalType": "contract IOpeningVerifier",
          "name": "oVerAddr",
          "type": "address"
        }
      ],
      "stateMutability": "nonpayable",
      "type": "constructor"
    },
    {
      "inputs": [],
      "name": "GuessingGame__GameHasEnded",
      "type": "error"
    },
    {
      "inputs": [
        {
          "internalType": "uint32",
          "name": "gameId",
          "type": "uint32"
        },
        {
          "internalType": "uint8",
          "name": "round",
          "type": "uint8"
        },
        {
          "internalType": "address",
          "name": "addr",
          "type": "address"
        }
      ],
      "name": "GuessingGame__InvalidCommitmentProof",
      "type": "error"
    },
    {
      "inputs": [],
      "name": "GuessingGame__InvalidGameId",
      "type": "error"
    },
    {
      "inputs": [
        {
          "internalType": "uint32",
          "name": "gameId",
          "type": "uint32"
        },
        {
          "internalType": "uint8",
          "name": "round",
          "type": "uint8"
        },
        {
          "internalType": "address",
          "name": "addr",
          "type": "address"
        }
      ],
      "name": "GuessingGame__InvalidOpeningProof",
      "type": "error"
    },
    {
      "inputs": [
        {
          "internalType": "uint32",
          "name": "gameId",
          "type": "uint32"
        }
      ],
      "name": "GuessingGame__NotEnoughPlayers",
      "type": "error"
    },
    {
      "inputs": [
        {
          "internalType": "uint32",
          "name": "gameId",
          "type": "uint32"
        },
        {
          "internalType": "address",
          "name": "addr",
          "type": "address"
        }
      ],
      "name": "GuessingGame__NotGameHost",
      "type": "error"
    },
    {
      "inputs": [],
      "name": "GuessingGame__NotOneOfPlayers",
      "type": "error"
    },
    {
      "inputs": [
        {
          "internalType": "address",
          "name": "p",
          "type": "address"
        }
      ],
      "name": "GuessingGame__PlayerAlreadyJoin",
      "type": "error"
    },
    {
      "inputs": [
        {
          "internalType": "enum IGuessingGame.GameState",
          "name": "expected",
          "type": "uint8"
        },
        {
          "internalType": "enum IGuessingGame.GameState",
          "name": "actual",
          "type": "uint8"
        }
      ],
      "name": "GuessingGame__UnexpectedGameState",
      "type": "error"
    },
    {
      "inputs": [
        {
          "internalType": "uint32",
          "name": "gameId",
          "type": "uint32"
        },
        {
          "internalType": "uint8",
          "name": "round",
          "type": "uint8"
        },
        {
          "internalType": "address",
          "name": "addr",
          "type": "address"
        }
      ],
      "name": "GuessingGame__UnmatchedCommitment",
      "type": "error"
    },
    {
      "inputs": [
        {
          "internalType": "address",
          "name": "owner",
          "type": "address"
        }
      ],
      "name": "OwnableInvalidOwner",
      "type": "error"
    },
    {
      "inputs": [
        {
          "internalType": "address",
          "name": "account",
          "type": "address"
        }
      ],
      "name": "OwnableUnauthorizedAccount",
      "type": "error"
    },
    {
      "anonymous": false,
      "inputs": [
        {
          "indexed": false,
          "internalType": "uint32",
          "name": "gameId",
          "type": "uint32"
        },
        {
          "indexed": false,
          "internalType": "uint8",
          "name": "round",
          "type": "uint8"
        },
        {
          "indexed": false,
          "internalType": "address",
          "name": "sender",
          "type": "address"
        }
      ],
      "name": "CommitmentOpened",
      "type": "event"
    },
    {
      "anonymous": false,
      "inputs": [
        {
          "indexed": false,
          "internalType": "uint32",
          "name": "gameId",
          "type": "uint32"
        },
        {
          "indexed": false,
          "internalType": "uint8",
          "name": "round",
          "type": "uint8"
        },
        {
          "indexed": false,
          "internalType": "address",
          "name": "sender",
          "type": "address"
        }
      ],
      "name": "CommitmentSubmitted",
      "type": "event"
    },
    {
      "anonymous": false,
      "inputs": [
        {
          "indexed": false,
          "internalType": "uint32",
          "name": "gameId",
          "type": "uint32"
        }
      ],
      "name": "GameStarted",
      "type": "event"
    },
    {
      "anonymous": false,
      "inputs": [
        {
          "indexed": false,
          "internalType": "uint32",
          "name": "gameId",
          "type": "uint32"
        },
        {
          "indexed": false,
          "internalType": "enum IGuessingGame.GameState",
          "name": "state",
          "type": "uint8"
        }
      ],
      "name": "GameStateUpdated",
      "type": "event"
    },
    {
      "anonymous": false,
      "inputs": [
        {
          "indexed": false,
          "internalType": "uint32",
          "name": "gameId",
          "type": "uint32"
        },
        {
          "indexed": false,
          "internalType": "address",
          "name": "winner",
          "type": "address"
        }
      ],
      "name": "GameWinner",
      "type": "event"
    },
    {
      "anonymous": false,
      "inputs": [
        {
          "indexed": true,
          "internalType": "uint32",
          "name": "gameId",
          "type": "uint32"
        },
        {
          "indexed": true,
          "internalType": "address",
          "name": "sender",
          "type": "address"
        }
      ],
      "name": "NewGame",
      "type": "event"
    },
    {
      "anonymous": false,
      "inputs": [
        {
          "indexed": true,
          "internalType": "address",
          "name": "previousOwner",
          "type": "address"
        },
        {
          "indexed": true,
          "internalType": "address",
          "name": "newOwner",
          "type": "address"
        }
      ],
      "name": "OwnershipTransferred",
      "type": "event"
    },
    {
      "anonymous": false,
      "inputs": [
        {
          "indexed": true,
          "internalType": "uint32",
          "name": "gameId",
          "type": "uint32"
        },
        {
          "indexed": true,
          "internalType": "address",
          "name": "sender",
          "type": "address"
        }
      ],
      "name": "PlayerJoinGame",
      "type": "event"
    },
    {
      "anonymous": false,
      "inputs": [
        {
          "indexed": false,
          "internalType": "uint32",
          "name": "gameId",
          "type": "uint32"
        },
        {
          "indexed": false,
          "internalType": "uint8",
          "name": "round",
          "type": "uint8"
        }
      ],
      "name": "RoundDraw",
      "type": "event"
    },
    {
      "anonymous": false,
      "inputs": [
        {
          "indexed": false,
          "internalType": "uint32",
          "name": "gameId",
          "type": "uint32"
        },
        {
          "indexed": false,
          "internalType": "uint8",
          "name": "round",
          "type": "uint8"
        },
        {
          "indexed": false,
          "internalType": "address",
          "name": "winner",
          "type": "address"
        },
        {
          "indexed": false,
          "internalType": "uint16",
          "name": "bid",
          "type": "uint16"
        }
      ],
      "name": "RoundWinner",
      "type": "event"
    },
    {
      "inputs": [],
      "name": "commitmentVerifier",
      "outputs": [
        {
          "internalType": "contract ICommitmentVerifier",
          "name": "",
          "type": "address"
        }
      ],
      "stateMutability": "view",
      "type": "function"
    },
    {
      "inputs": [
        {
          "internalType": "uint32",
          "name": "gameId",
          "type": "uint32"
        }
      ],
      "name": "concludeRound",
      "outputs": [],
      "stateMutability": "nonpayable",
      "type": "function"
    },
    {
      "inputs": [
        {
          "internalType": "uint256",
          "name": "",
          "type": "uint256"
        }
      ],
      "name": "games",
      "outputs": [
        {
          "internalType": "enum IGuessingGame.GameState",
          "name": "state",
          "type": "uint8"
        },
        {
          "internalType": "uint8",
          "name": "currentRound",
          "type": "uint8"
        },
        {
          "internalType": "address",
          "name": "winner",
          "type": "address"
        },
        {
          "internalType": "uint256",
          "name": "startTime",
          "type": "uint256"
        },
        {
          "internalType": "uint256",
          "name": "lastUpdate",
          "type": "uint256"
        },
        {
          "internalType": "uint256",
          "name": "endTime",
          "type": "uint256"
        }
      ],
      "stateMutability": "view",
      "type": "function"
    },
    {
      "inputs": [
        {
          "internalType": "uint32",
          "name": "gameId",
          "type": "uint32"
        }
      ],
      "name": "getGame",
      "outputs": [
        {
          "components": [
            {
              "internalType": "address[]",
              "name": "players",
              "type": "address[]"
            },
            {
              "internalType": "uint8",
              "name": "currentRound",
              "type": "uint8"
            },
            {
              "internalType": "enum IGuessingGame.GameState",
              "name": "state",
              "type": "uint8"
            },
            {
              "internalType": "address",
              "name": "winner",
              "type": "address"
            },
            {
              "internalType": "uint256",
              "name": "startTime",
              "type": "uint256"
            },
            {
              "internalType": "uint256",
              "name": "lastUpdate",
              "type": "uint256"
            },
            {
              "internalType": "uint256",
              "name": "endTime",
              "type": "uint256"
            }
          ],
          "internalType": "struct IGuessingGame.GameView",
          "name": "",
          "type": "tuple"
        }
      ],
      "stateMutability": "view",
      "type": "function"
    },
    {
      "inputs": [
        {
          "internalType": "uint32",
          "name": "gameId",
          "type": "uint32"
        }
      ],
      "name": "getGameHost",
      "outputs": [
        {
          "internalType": "address",
          "name": "",
          "type": "address"
        }
      ],
      "stateMutability": "view",
      "type": "function"
    },
    {
      "inputs": [
        {
          "internalType": "uint32",
          "name": "gameId",
          "type": "uint32"
        },
        {
          "internalType": "uint8",
          "name": "round",
          "type": "uint8"
        },
        {
          "internalType": "address",
          "name": "player",
          "type": "address"
        }
      ],
      "name": "getPlayerCommitment",
      "outputs": [
        {
          "components": [
            {
              "internalType": "uint256",
              "name": "submission",
              "type": "uint256"
            },
            {
              "internalType": "uint256",
              "name": "nullifier",
              "type": "uint256"
            }
          ],
          "internalType": "struct IGuessingGame.Commitment",
          "name": "",
          "type": "tuple"
        }
      ],
      "stateMutability": "view",
      "type": "function"
    },
    {
      "inputs": [
        {
          "internalType": "uint32",
          "name": "gameId",
          "type": "uint32"
        },
        {
          "internalType": "address",
          "name": "player",
          "type": "address"
        }
      ],
      "name": "getPlayerGameRoundsWon",
      "outputs": [
        {
          "internalType": "uint8",
          "name": "",
          "type": "uint8"
        }
      ],
      "stateMutability": "view",
      "type": "function"
    },
    {
      "inputs": [
        {
          "internalType": "uint32",
          "name": "gameId",
          "type": "uint32"
        },
        {
          "internalType": "uint8",
          "name": "round",
          "type": "uint8"
        },
        {
          "internalType": "address",
          "name": "player",
          "type": "address"
        }
      ],
      "name": "getPlayerOpening",
      "outputs": [
        {
          "internalType": "uint16",
          "name": "",
          "type": "uint16"
        }
      ],
      "stateMutability": "view",
      "type": "function"
    },
    {
      "inputs": [
        {
          "internalType": "uint32",
          "name": "gameId",
          "type": "uint32"
        }
      ],
      "name": "joinGame",
      "outputs": [],
      "stateMutability": "nonpayable",
      "type": "function"
    },
    {
      "inputs": [],
      "name": "newGame",
      "outputs": [
        {
          "internalType": "uint32",
          "name": "gameId",
          "type": "uint32"
        }
      ],
      "stateMutability": "nonpayable",
      "type": "function"
    },
    {
      "inputs": [],
      "name": "nextGameId",
      "outputs": [
        {
          "internalType": "uint32",
          "name": "",
          "type": "uint32"
        }
      ],
      "stateMutability": "view",
      "type": "function"
    },
    {
      "inputs": [
        {
          "internalType": "uint32",
          "name": "gameId",
          "type": "uint32"
        },
        {
          "internalType": "uint256[24]",
          "name": "proof",
          "type": "uint256[24]"
        },
        {
          "internalType": "uint256[4]",
          "name": "pubSignals",
          "type": "uint256[4]"
        }
      ],
      "name": "openCommitment",
      "outputs": [],
      "stateMutability": "nonpayable",
      "type": "function"
    },
    {
      "inputs": [],
      "name": "openingVerifier",
      "outputs": [
        {
          "internalType": "contract IOpeningVerifier",
          "name": "",
          "type": "address"
        }
      ],
      "stateMutability": "view",
      "type": "function"
    },
    {
      "inputs": [],
      "name": "owner",
      "outputs": [
        {
          "internalType": "address",
          "name": "",
          "type": "address"
        }
      ],
      "stateMutability": "view",
      "type": "function"
    },
    {
      "inputs": [],
      "name": "renounceOwnership",
      "outputs": [],
      "stateMutability": "nonpayable",
      "type": "function"
    },
    {
      "inputs": [
        {
          "internalType": "uint32",
          "name": "gameId",
          "type": "uint32"
        }
      ],
      "name": "startGame",
      "outputs": [],
      "stateMutability": "nonpayable",
      "type": "function"
    },
    {
      "inputs": [
        {
          "internalType": "uint32",
          "name": "gameId",
          "type": "uint32"
        },
        {
          "internalType": "uint256[24]",
          "name": "proof",
          "type": "uint256[24]"
        },
        {
          "internalType": "uint256[2]",
          "name": "pubSignals",
          "type": "uint256[2]"
        }
      ],
      "name": "submitCommitment",
      "outputs": [],
      "stateMutability": "nonpayable",
      "type": "function"
    },
    {
      "inputs": [
        {
          "internalType": "address",
          "name": "newOwner",
          "type": "address"
        }
      ],
      "name": "transferOwnership",
      "outputs": [],
      "stateMutability": "nonpayable",
      "type": "function"
    }
  ],
  "bytecode": "0x60806040523462000038576200001f620000186200016d565b90620002d8565b620000296200003e565b6133cc620004bf82396133cc90f35b62000044565b60405190565b600080fd5b601f801991011690565b634e487b7160e01b600052604160045260246000fd5b90620000759062000049565b810190811060018060401b038211176200008e57604052565b62000053565b90620000ab620000a36200003e565b928362000069565b565b600080fd5b60018060a01b031690565b620000c890620000b2565b90565b620000d690620000bd565b90565b620000e481620000cb565b03620000ec57565b600080fd5b905051906200010082620000d9565b565b6200010d90620000bd565b90565b6200011b8162000102565b036200012357565b600080fd5b90505190620001378262000110565b565b91906040838203126200016757806200015a620001649260008601620000f1565b9360200162000128565b90565b620000ad565b620001906200388b80380380620001848162000094565b92833981019062000139565b9091565b60001b90565b90620001ab63ffffffff9162000194565b9181191691161790565b90565b63ffffffff1690565b90565b620001dd620001d7620001e392620001b5565b620001c1565b620001b8565b90565b90565b9062000203620001fd6200020b92620001c4565b620001e6565b82546200019a565b9055565b906200022260018060a01b039162000194565b9181191691161790565b620002456200023f6200024b92620000b2565b620001c1565b620000b2565b90565b62000259906200022c565b90565b62000267906200024e565b90565b90565b9062000287620002816200028f926200025c565b6200026a565b82546200020f565b9055565b6200029e906200022c565b90565b620002ac9062000293565b90565b90565b90620002cc620002c6620002d492620002a1565b620002af565b82546200020f565b9055565b90620003036200030b92620002ed3362000364565b620002fb60006004620001e9565b60016200026d565b6002620002b2565b565b62000326620003206200032c92620001b5565b620001c1565b620000b2565b90565b6200033a906200030d565b90565b6200034890620000bd565b9052565b919062000362906000602085019401906200033d565b565b80620003866200037f6200037960006200032f565b620000bd565b91620000bd565b146200039957620003979062000451565b565b620003ca620003a960006200032f565b620003b36200003e565b918291631e4fbdf760e01b8352600483016200034c565b0390fd5b60001c90565b60018060a01b031690565b620003ee620003f491620003ce565b620003d4565b90565b620004039054620003df565b90565b62000411906200022c565b90565b6200041f9062000406565b90565b90565b906200043f62000439620004479262000414565b62000422565b82546200020f565b9055565b60000190565b6200045d6000620003f7565b6200046a82600062000425565b90620004a26200049b7f8be0079c531659141344cd1fd0a4f28419497f9722a3daafe3b4186f6b6457e09362000414565b9162000414565b91620004ad6200003e565b80620004b9816200044b565b0390a356fe60806040526004361015610013575b610ce3565b61001e60003561013d565b8063117a5b90146101385780631e4b2dfa146101335780632915724f1461012e57806347b9c8bb146101295780635d682cee14610124578063715018a61461011f5780637d03f5f31461011a578063812f0fb01461011557806389f45339146101105780638da5cb5b1461010b5780639335f34814610106578063b135bbb014610101578063b6f69086146100fc578063c6e89258146100f7578063d17d0d63146100f2578063d8958f17146100ed578063dfd70c75146100e85763f2fde38b0361000e57610cb0565b610c5b565b610bea565b610b45565b610b10565b610a41565b6109ba565b610941565b610883565b61083a565b610805565b61067f565b610629565b6105e5565b610546565b610513565b6104b8565b6103e7565b60e01c90565b60405190565b600080fd5b600080fd5b90565b61015f81610153565b0361016657565b600080fd5b9050359061017882610156565b565b90602082820312610194576101919160000161016b565b90565b61014e565b634e487b7160e01b600052603260045260246000fd5b5490565b600052602060002090565b6101c7816101af565b8210156101e2576101d9600a916101b3565b91020190600090565b610199565b60001c90565b60ff1690565b6101ff610204916101e7565b6101ed565b90565b61021190546101f3565b90565b60ff1690565b61022661022b916101e7565b610214565b90565b610238905461021a565b90565b60018060a01b031690565b610252610257916101e7565b61023b565b90565b6102649054610246565b90565b90565b61027661027b916101e7565b610267565b90565b610288905461026a565b90565b600390610297826101af565b8110156102f8576102a7916101be565b50906102b560008301610207565b916102c26002820161022e565b916102cf6006830161025a565b916102dc6007820161027e565b916102f560096102ee6008850161027e565b930161027e565b90565b600080fd5b634e487b7160e01b600052602160045260246000fd5b6005111561031d57565b6102fd565b9061032c82610313565b565b61033790610322565b90565b6103439061032e565b9052565b60ff1690565b61035690610347565b9052565b60018060a01b031690565b61036e9061035a565b90565b61037a90610365565b9052565b61038790610153565b9052565b91946103d46103de929897956103ca60a0966103c06103e59a6103b660c08a019e60008b019061033a565b602089019061034d565b6040870190610371565b606085019061037e565b608083019061037e565b019061037e565b565b3461041e5761041a6104026103fd36600461017a565b61028b565b92610411969496929192610143565b9687968761038b565b0390f35b610149565b63ffffffff1690565b61043581610423565b0361043c57565b600080fd5b9050359061044e8261042c565b565b61045981610365565b0361046057565b600080fd5b9050359061047282610450565b565b919060408382031261049d578061049161049a9260008601610441565b93602001610465565b90565b61014e565b91906104b69060006020850194019061034d565b565b346104e9576104e56104d46104ce366004610474565b90610db4565b6104dc610143565b918291826104a2565b0390f35b610149565b906020828203126105085761050591600001610441565b90565b61014e565b60000190565b346105415761052b6105263660046104ee565b611184565b610533610143565b8061053d8161050d565b0390f35b610149565b346105745761055e6105593660046104ee565b611a09565b610566610143565b806105708161050d565b0390f35b610149565b600080fd5b9190602060180283011161058e57565b610579565b919060206004028301116105a357565b610579565b90916103a0828403126105e0576105dd6105c58460008501610441565b936105d3816020860161057e565b9361032001610593565b90565b61014e565b34610614576105fe6105f83660046105a8565b9161215f565b610606610143565b806106108161050d565b0390f35b610149565b600091031261062457565b61014e565b3461065757610639366004610619565b6106416121ba565b610649610143565b806106538161050d565b0390f35b610149565b61066590610423565b9052565b919061067d9060006020850194019061065c565b565b346106af5761068f366004610619565b6106ab61069a612291565b6106a2610143565b91829182610669565b0390f35b610149565b5190565b60209181520190565b60200190565b6106d090610365565b9052565b906106e1816020936106c7565b0190565b60200190565b906107086107026106fb846106b4565b80936106b8565b926106c1565b9060005b8181106107195750505090565b90919261073261072c60019286516106d4565b946106e5565b910191909161070c565b61074590610347565b9052565b6107529061032e565b9052565b61075f90610153565b9052565b906107e99060c08061078460e08401600087015185820360008701526106eb565b946107976020820151602086019061073c565b6107a960408201516040860190610749565b6107bb606082015160608601906106c7565b6107cd60808201516080860190610756565b6107df60a082015160a0860190610756565b0151910190610756565b90565b6108029160208201916000818403910152610763565b90565b346108355761083161082061081b3660046104ee565b61260d565b610828610143565b918291826107ec565b0390f35b610149565b346108685761085261084d3660046104ee565b612808565b61085a610143565b806108648161050d565b0390f35b610149565b919061088190600060208501940190610371565b565b346108b357610893366004610619565b6108af61089e612818565b6108a6610143565b9182918261086d565b0390f35b610149565b6108c181610347565b036108c857565b600080fd5b905035906108da826108b8565b565b90916060828403126109125761090f6108f88460008501610441565b9361090681602086016108cd565b93604001610465565b90565b61014e565b61ffff1690565b61092790610917565b9052565b919061093f9060006020850194019061091e565b565b346109725761096e61095d6109573660046108dc565b916128bd565b610965610143565b9182918261092b565b0390f35b610149565b1c90565b63ffffffff1690565b6109949060086109999302610977565b61097b565b90565b906109a79154610984565b90565b6109b7600460009061099c565b90565b346109ea576109ca366004610619565b6109e66109d56109aa565b6109dd610143565b91829182610669565b0390f35b610149565b919060206002028301116109ff57565b610579565b909161036082840312610a3c57610a39610a218460008501610441565b93610a2f816020860161057e565b93610320016109ef565b90565b61014e565b34610a7057610a5a610a54366004610a04565b91612e30565b610a62610143565b80610a6c8161050d565b0390f35b610149565b60018060a01b031690565b610a90906008610a959302610977565b610a75565b90565b90610aa39154610a80565b90565b610ab36001600090610a98565b90565b90565b610acd610ac8610ad29261035a565b610ab6565b61035a565b90565b610ade90610ab9565b90565b610aea90610ad5565b90565b610af690610ae1565b9052565b9190610b0e90600060208501940190610aed565b565b34610b4057610b20366004610619565b610b3c610b2b610aa6565b610b33610143565b91829182610afa565b0390f35b610149565b34610b7557610b71610b60610b5b3660046104ee565b612ebf565b610b68610143565b9182918261086d565b0390f35b610149565b60018060a01b031690565b610b95906008610b9a9302610977565b610b7a565b90565b90610ba89154610b85565b90565b610bb86002600090610b9d565b90565b610bc490610ad5565b90565b610bd090610bbb565b9052565b9190610be890600060208501940190610bc7565b565b34610c1a57610bfa366004610619565b610c16610c05610bab565b610c0d610143565b91829182610bd4565b0390f35b610149565b90602080610c4393610c3960008201516000860190610756565b0151910190610756565b565b9190610c5990600060408501940190610c1f565b565b34610c8c57610c88610c77610c713660046108dc565b91612fe2565b610c7f610143565b91829182610c45565b0390f35b610149565b90602082820312610cab57610ca891600001610465565b90565b61014e565b34610cde57610cc8610cc3366004610c91565b613066565b610cd0610143565b80610cda8161050d565b0390f35b610149565b600080fd5b600090565b610cf9610cfe916101e7565b61097b565b90565b610d0b9054610ced565b90565b919080610d2c610d26610d216004610d01565b610423565b91610423565b1015610d3e57610d3b92610d88565b90565b610d46610143565b630e5ea16760e41b815280610d5d6004820161050d565b0390fd5b90565b610d6d90610ad5565b90565b90610d7a90610d64565b600052602052604060002090565b916003610da6610da0610dac94610db19650836101be565b50610d61565b01610d70565b61022e565b90565b90610dc691610dc1610ce8565b610d0e565b90565b80610de5610ddf610dda6004610d01565b610423565b91610423565b1015610df657610df490610e3d565b565b610dfe610143565b630e5ea16760e41b815280610e156004820161050d565b0390fd5b916020610e3b929493610e346040820196600083019061033a565b019061033a565b565b80610e54610e4e60009260036101be565b50610d61565b90610e6160008301610207565b610e73610e6d83610322565b91610322565b03610e85575050610e8390611077565b565b6000610e92919201610207565b90610eb3610e9e610143565b928392628c577560e41b845260048401610e19565b0390fd5b90565b610ece610ec9610ed392610eb7565b610ab6565b610347565b90565b634e487b7160e01b600052601160045260246000fd5b610ef590610347565b60ff8114610f035760010190565b610ed6565b5490565b610f20610f1b610f2592610347565b610ab6565b610153565b90565b600052602060002090565b610f3c81610f08565b821015610f5757610f4e600191610f28565b91020190600090565b610199565b610f6c906008610f719302610977565b61023b565b90565b90610f7f9154610f5c565b90565b90565b634e487b7160e01b600052604160045260246000fd5b600052602060002090565b5490565b610fb381610fa6565b821015610fce57610fc5600191610f9b565b91020190600090565b610199565b1b90565b91906008610ff7910291610ff160018060a01b0384610fd3565b92610fd3565b9181191691161790565b90565b919061101a61101561102293610d64565b611001565b908354610fd7565b9055565b9081549168010000000000000000831015611056578261104e91600161105495018155610faa565b90611004565b565b610f85565b61106f61106a61107492610423565b610ab6565b610423565b90565b9061108d611087600384906101be565b50610d61565b906110986000610eba565b5b806110b76110b16110ac60018701610f08565b610153565b91610f0c565b101561111f576110d46110ce600185018390610f33565b90610f74565b6110e66110e033610365565b91610365565b146110f9576110f490610eec565b611099565b61111b33611105610143565b91829163729ca8e760e11b83526004830161086d565b0390fd5b50919061113160016111389201610f82565b3390611026565b3361116c6111667f0376ec1451fb8d69bd1557f9ea553b81ba8052dfbea4c7aa3c0160c43ccf2fcd9361105b565b91610d64565b91611175610143565b8061117f8161050d565b0390a3565b61118d90610dc9565b565b806111ab6111a56111a06004610d01565b610423565b91610423565b10156111bc576111ba90611203565b565b6111c4610143565b630e5ea16760e41b8152806111db6004820161050d565b0390fd5b9160206112019294936111fa6040820196600083019061065c565b0190610371565b565b8061123061122a600161122161121b600386906101be565b50610d61565b01600090610f33565b90610f74565b61124261123c33610365565b91610365565b0361125357506112519061127a565b565b3390611276611260610143565b9283926352f3537f60e01b8452600484016111df565b0390fd5b8061129161128b60039260036101be565b50610d61565b9061129e60008301610207565b6112b06112aa83610322565b91610322565b036112c25750506112c09061161b565b565b60006112cf919201610207565b906112f06112db610143565b928392628c577560e41b845260048401610e19565b0390fd5b67ffffffffffffffff1690565b61131561131061131a92610153565b610ab6565b6112f4565b90565b61133161132c61133692610eb7565b610ab6565b6112f4565b90565b611342906112f4565b67ffffffffffffffff81146113575760010190565b610ed6565b61137061136b611375926112f4565b610ab6565b610153565b90565b61138c61138761139192610347565b610ab6565b610347565b90565b9061139e90611378565b600052602052604060002090565b906113b690610d64565b600052602052604060002090565b61ffff1690565b6113d76113dc916101e7565b6113c4565b90565b6113e990546113cb565b90565b90565b6114036113fe611408926113ec565b610ab6565b610917565b90565b61141761141d91610917565b91610917565b029061142882610917565b91820361143157565b610ed6565b61144a61144561144f92610917565b610ab6565b6112f4565b90565b61145e611464916112f4565b916112f4565b019067ffffffffffffffff821161147757565b610ed6565b634e487b7160e01b600052601260045260246000fd5b61149e6114a4916112f4565b916112f4565b9081156114af570490565b61147c565b90565b6114cb6114c66114d0926114b4565b610ab6565b6112f4565b90565b6114e76114e26114ec926114b4565b610ab6565b610347565b90565b6114fb61150191610347565b91610347565b019060ff821161150d57565b610ed6565b60001b90565b9061152460ff91611512565b9181191691161790565b90565b9061154661154161154d92611378565b61152e565b8254611518565b9055565b61158761158e9461157d606094989795611573608086019a600087019061065c565b602085019061034d565b6040830190610371565b019061091e565b565b9160206115b29294936115ab6040820196600083019061065c565b019061034d565b565b90565b6115cb6115c66115d0926115b4565b610ab6565b610347565b90565b6115dd60036115b7565b90565b906115f160018060a01b0391611512565b9181191691161790565b9061161061160b61161792610d64565b611001565b82546115e0565b9055565b9061163161162b600384906101be565b50610d61565b61164561164060018301610f08565b611301565b916116526002830161022e565b9061165d600061131d565b94611668600061131d565b955b8661168861168261167d60018901610f08565b610153565b9161135c565b10156116f7576116eb6116f1916116e56116e06116cf6116ca6116b76116b18e60018e01610f33565b90610f74565b6116c560058d018c90611394565b6113ac565b6113df565b6116da6103e86113ef565b9061140b565b611436565b90611452565b96611339565b9561166a565b611705929591939650611492565b9361171e61171860018501600090610f33565b90610f74565b93611765611756611745611740611739600589018790611394565b89906113ac565b6113df565b6117506103e86113ef565b9061140b565b6117608891611436565b6130a1565b9260009561177360016114b7565b965b8761179361178d61178860018b01610f08565b610153565b9161135c565b1015611861576117b06117aa600189018a90610f33565b90610f74565b6117f66117e76117d66117d16117ca60058d018b90611394565b85906113ac565b6113df565b6117e16103e86113ef565b9061140b565b6117f18c91611436565b6130a1565b806118096118038a6112f4565b916112f4565b14600014611826575050506118206001975b611339565b96611775565b8099929961183c6118368a6112f4565b916112f4565b1061184d575b50506118209061181b565b925095509650936118206000979038611842565b92975093509394506000146119755782907fd91d09e1ae5d9e92ba174c808658c9834ff0c5affe15d59f47ff48c2739997a8916118a861189f610143565b92839283611590565b0390a15b6118c26118bd600385018390610d70565b61022e565b6118db6118d56118d06115d3565b610347565b91610347565b1460001461193a576118f46119379360068391016115fb565b81907f42a6ea4a404209acf2556b8a45d50b968bc0d9323540042586ba912a30c5d7369161192c611923610143565b928392836111df565b0390a16004906132c7565b5b565b5061196861197092611962600261195160016114d3565b92019161195d8361022e565b6114ef565b90611531565b6001906132c7565b611938565b6119a861198260016114d3565b6119a2611993600388018690610d70565b9161199d8361022e565b6114ef565b90611531565b828190611a016119ce6119c96119c2879660058b01611394565b87906113ac565b6113df565b7f24c05ed18a5f698a764dcd3504f1c43fc1e6e385a4e88d90e6e4712781e021e6946119f8610143565b94859485611551565b0390a16118ac565b611a129061118f565b565b919082611a32611a2c611a276004610d01565b610423565b91610423565b1015611a4357611a4192611a6b565b565b611a4b610143565b630e5ea16760e41b815280611a626004820161050d565b0390fd5b151590565b9091611a81611a7b8360036101be565b50610d61565b92600093611a8f6000610eba565b5b80611aae611aa8611aa360018601610f08565b610153565b91610f0c565b1015611b3457611acb611ac5600184018390610f33565b90610f74565b611add611ad733610365565b91610365565b14611af057611aeb90610eec565b611a90565b505090919250611b0260015b15611a66565b611b1157611b0f92611b42565b565b611b19610143565b63a242193d60e01b815280611b306004820161050d565b0390fd5b5050909192611b0290611afc565b92919083611b5c611b5660029660036101be565b50610d61565b94611b6960008701610207565b611b7b611b7583610322565b91610322565b03611b8e5750611b8c939450611e20565b565b611b9a60008701610207565b90611bbb611ba6610143565b928392628c577560e41b845260048401610e19565b0390fd5b90611bc990611378565b600052602052604060002090565b90611be190610d64565b600052602052604060002090565b90565b906004811015611c03576020020190565b610199565b611c1c611c17611c2192610eb7565b610ab6565b610153565b90565b35611c2e81610156565b90565b611c45611c40611c4a926114b4565b610ab6565b610153565b90565b604090611c77611c7e9496959396611c6d6060840198600085019061065c565b602083019061034d565b0190610371565b565b611c8c611c91916101e7565b610b7a565b90565b611c9e9054611c80565b90565b601f801991011690565b90611cb590611ca1565b810190811067ffffffffffffffff821117611ccf57604052565b610f85565b60e01b90565b611ce381611a66565b03611cea57565b600080fd5b90505190611cfc82611cda565b565b90602082820312611d1857611d1591600001611cef565b90565b61014e565b9037565b611d2e9161030091611d1d565b565b611d3c91608091611d1d565b565b91610300611d62929493611d5b6103808201966000830190611d21565b0190611d30565b565b90565b611d7b611d76611d8092611d64565b610ab6565b610153565b90565b611d97611d92611d9c92610153565b610ab6565b610917565b90565b90611dac61ffff91611512565b9181191691161790565b611dca611dc5611dcf92610917565b610ab6565b610917565b90565b90565b90611dea611de5611df192611db6565b611dd2565b8254611d9f565b9055565b6001611e019101610153565b90565b611e18611e13611e1d92610eb7565b610ab6565b610917565b90565b9091611e37611e31600384906101be565b50610d61565b90611e446002830161022e565b93611e65611e60611e59600486018890611bbf565b3390611bd7565b611bef565b611e716000820161027e565b611e9e611e98611e93611e8e87611e886000611c08565b90611bf2565b611c24565b610153565b91610153565b141590811561211d575b506120f4576020611ec1611ebc6002611c94565b610bbb565b636183f6b49290611ee48594611eef611ed8610143565b96879586948594611cd4565b845260048401611d3e565b03915afa80916000926120c4575b501560001461207c5750600161205457611f35611f30611f2b611f52935b611f256002611d67565b90611bf2565b611c24565b611d83565b611f4d611f46600585018790611394565b33906113ac565b611dd5565b81833391611f8c7f8091531c95e42cbd103ed41c7b1f94540748b6acf3187990fbd8e9c9af44ea4493611f83610143565b93849384611c4d565b0390a1600092611f9c6000611c08565b5b80611fbb611fb5611fb060018701610f08565b610153565b91610153565b101561204757611ff6611ff1611fde611fd8600187018590610f33565b90610f74565b611fec600587018690611394565b6113ac565b6113df565b6120096120036000611e04565b91610917565b1461201c5761201790611df5565b611f9d565b505050905061202d60015b15611a66565b612035575b50565b612041906003906132c7565b38612032565b5050509061202d90612027565b505061207833612062610143565b938493631c75226560e11b855260048501611c4d565b0390fd5b6120869015611a66565b61209c57611f35611f30611f2b611f5293611f1b565b50506120c0336120aa610143565b938493631c75226560e11b855260048501611c4d565b0390fd5b6120e691925060203d81116120ed575b6120de8183611cab565b810190611cfe565b9038611efd565b503d6120d4565b50505061211933612103610143565b93849363ffd646e160e01b855260048501611c4d565b0390fd5b61212a915060010161027e565b61215761215161214c612147866121416001611c31565b90611bf2565b611c24565b610153565b91610153565b141538611ea8565b9061216a9291611a14565b565b6121746132d3565b61217c6121a6565b565b61219261218d61219792610eb7565b610ab6565b61035a565b90565b6121a39061217e565b90565b6121b86121b3600061219a565b613328565b565b6121c261216c565b565b600090565b90565b5490565b600052602060002090565b6121e4816121cc565b8210156121ff576121f6600a916121d0565b91020190600090565b610199565b61220d816121cc565b680100000000000000008110156122315761222d916001820181556121db565b9091565b610f85565b61223f90610423565b63ffffffff81146122505760010190565b610ed6565b9061226463ffffffff91611512565b9181191691161790565b90565b9061228661228161228d9261105b565b61226e565b8254612255565b9055565b6122996121c4565b506122ca6122c360016122bd6122b76122b260036121c9565b612204565b50610d61565b01610f82565b3390611026565b6122d46004610d01565b6122e76122e082612236565b6004612271565b906122f4826000906132c7565b81336123296123237f4d02ce21c9b87cd569227bcf4c505c9c57c55b19697fcd04316a57d69ed52a019361105b565b91610d64565b91612332610143565b8061233c8161050d565b0390a3565b9061235461234d610143565b9283611cab565b565b61236060e0612341565b90565b606090565b600090565b600090565b600090565b600090565b612384612356565b90602080808080808088612396612363565b8152016123a1612368565b8152016123ac61236d565b8152016123b7612372565b8152016123c2612377565b8152016123cd612377565b8152016123d8612377565b81525050565b6123e661237c565b90565b90806124066124006123fb6004610d01565b610423565b91610423565b10156124185761241591612529565b90565b612420610143565b630e5ea16760e41b8152806124376004820161050d565b0390fd5b61244560e0612341565b90565b6124529054610246565b90565b60010190565b9061247861247261246b84610f08565b80936106b8565b92610f28565b9060005b8181106124895750505090565b9091926124a96124a360019261249e87612448565b6106d4565b94612455565b910191909161247c565b906124bd9161245b565b90565b906124e06124d9926124d0610143565b938480926124b3565b0383611cab565b565b6124eb906124c0565b90565b52565b906124fb90610347565b9052565b9061250990610322565b9052565b9061251790610365565b9052565b9061252590610153565b9052565b50600390612536916101be565b5061254090610d61565b8060010190806002016125529061022e565b908060000161256090610207565b8160060161256d9061025a565b8260070161257a9061027e565b91836008016125889061027e565b936009016125959061027e565b9461259e61243b565b966125a8906124e2565b60008801906125b6916124ee565b60208701906125c4916124f1565b60408601906125d2916124ff565b60608501906125e09161250d565b60808401906125ee9161251b565b60a08301906125fc9161251b565b60c082019061260a9161251b565b90565b61261e906126196123de565b6123e9565b90565b8061263d6126376126326004610d01565b610423565b91610423565b101561264e5761264c90612671565b565b612656610143565b630e5ea16760e41b81528061266d6004820161050d565b0390fd5b8061269e612698600161268f612689600386906101be565b50610d61565b01600090610f33565b90610f74565b6126b06126aa33610365565b91610365565b036126c157506126bf906126e8565b565b33906126e46126ce610143565b9283926352f3537f60e01b8452600484016111df565b0390fd5b806126ff6126f960009260036101be565b50610d61565b9061270c60008301610207565b61271e61271883610322565b91610322565b0361273057505061272e90612762565b565b600061273d919201610207565b9061275e612749610143565b928392628c577560e41b845260048401610e19565b0390fd5b612782600161277c612776600385906101be565b50610d61565b01610f08565b61279561278f6002611d67565b91610153565b11156127e2576127a7816001906132c7565b6127dd7fe6aebc56b3bafc90ff9fcf8f838e304f2b308c7b3cc63fde56fb1806a03968fe916127d4610143565b91829182610669565b0390a1565b612804906127ee610143565b9182916376293c1d60e01b835260048301610669565b0390fd5b61281190612621565b565b600090565b612820612813565b5061282b600061025a565b90565b600090565b9291908061285261284c6128476004610d01565b610423565b91610423565b10156128645761286193612887565b90565b61286c610143565b630e5ea16760e41b8152806128836004820161050d565b0390fd5b6128b59260056128aa6128a46128ba97956128b0955060036101be565b50610d61565b01611394565b6113ac565b6113df565b90565b906128d092916128cb61282e565b612833565b90565b9190826128f16128eb6128e66004610d01565b610423565b91610423565b10156129025761290092612925565b565b61290a610143565b630e5ea16760e41b8152806129216004820161050d565b0390fd5b909161293b6129358360036101be565b50610d61565b926000936129496000610eba565b5b8061296861296261295d60018601610f08565b610153565b91610f0c565b10156129ee5761298561297f600184018390610f33565b90610f74565b61299761299133610365565b91610365565b146129aa576129a590610eec565b61294a565b5050909192506129bc60015b15611a66565b6129cb576129c9926129fc565b565b6129d3610143565b63a242193d60e01b8152806129ea6004820161050d565b0390fd5b50509091926129bc906129b6565b92919083612a16612a1060019660036101be565b50610d61565b94612a2360008701610207565b612a35612a2f83610322565b91610322565b03612a485750612a46939450612b95565b565b612a5460008701610207565b90612a75612a60610143565b928392628c577560e41b845260048401610e19565b0390fd5b612a85612a8a916101e7565b610a75565b90565b612a979054612a79565b90565b612aa691604091611d1d565b565b91610300612acc929493612ac56103408201966000830190611d21565b0190612a9a565b565b906002811015612adf576020020190565b610199565b612aee6040612341565b90565b612afb9051610153565b90565b90612b0b60001991611512565b9181191691161790565b612b29612b24612b2e92610153565b610ab6565b610153565b90565b90565b90612b49612b44612b5092612b15565b612b31565b8254612afe565b9055565b90612b8160206001612b8794612b7960008201612b7360008801612af1565b90612b34565b019201612af1565b90612b34565b565b90612b9391612b54565b565b9091612bac612ba6600384906101be565b50610d61565b90612bb96002830161022e565b936020612bce612bc96001612a8d565b610ae1565b63c0e9d81c9290612bf18594612bfc612be5610143565b96879586948594611cd4565b845260048401612aa8565b03915afa8091600092612e00575b5015600014612dc157506001612d9957612c95905b612c78612c5a612c55612c44612c3f85612c396000611c08565b90612ace565b611c24565b93612c4f6001611c31565b90612ace565b611c24565b612c6f612c65612ae4565b936000850161251b565b6020830161251b565b612c90612c89600485018790611bbf565b3390611bd7565b612b89565b81833391612ccf7f2a2e685f4b35ad9685bb75094db1851f4d30e370bc4a4c32d1103a9626fed5a593612cc6610143565b93849384611c4d565b0390a1600092612cdf6000611c08565b5b80612cfe612cf8612cf360018701610f08565b610153565b91610153565b1015612d8c57612d3b6001612d35612d22612d1c8388018690610f33565b90610f74565b612d30600488018790611bbf565b611bd7565b0161027e565b612d4e612d486000611c08565b91610153565b14612d6157612d5c90611df5565b612ce0565b5050509050612d7260015b15611a66565b612d7a575b50565b612d86906002906132c7565b38612d77565b50505090612d7290612d6c565b5050612dbd33612da7610143565b938493630ff25d5d60e11b855260048501611c4d565b0390fd5b612dcb9015611a66565b612dd857612c9590612c1f565b5050612dfc33612de6610143565b938493630ff25d5d60e11b855260048501611c4d565b0390fd5b612e2291925060203d8111612e29575b612e1a8183611cab565b810190611cfe565b9038612c0a565b503d612e10565b90612e3b92916128d3565b565b9080612e5a612e54612e4f6004610d01565b610423565b91610423565b1015612e6c57612e6991612e8f565b90565b612e74610143565b630e5ea16760e41b815280612e8b6004820161050d565b0390fd5b6001612ead612ea7612ebc94612eb6945060036101be565b50610d61565b01600090610f33565b90610f74565b90565b612ed090612ecb612813565b612e3d565b90565b612edd6040612341565b90565b612ee8612ed3565b9060208083612ef5612377565b815201612f00612377565b81525050565b612f0e612ee0565b90565b92919080612f30612f2a612f256004610d01565b610423565b91610423565b1015612f4257612f3f93612fac565b90565b612f4a610143565b630e5ea16760e41b815280612f616004820161050d565b0390fd5b90612f9e612f956001612f76612ed3565b94612f8f612f866000830161027e565b6000880161251b565b0161027e565b6020840161251b565b565b612fa990612f65565b90565b612fda926004612fcf612fc9612fdf9795612fd5955060036101be565b50610d61565b01611bbf565b611bd7565b612fa0565b90565b90612ff59291612ff0612f06565b612f11565b90565b613009906130046132d3565b61300b565b565b8061302761302161301c600061219a565b610365565b91610365565b146130375761303590613328565b565b613062613044600061219a565b61304c610143565b918291631e4fbdf760e01b83526004830161086d565b0390fd5b61306f90612ff8565b565b600090565b613082613088916112f4565b916112f4565b90039067ffffffffffffffff821161309c57565b610ed6565b906130aa613071565b50816130be6130b8836112f4565b916112f4565b10156130d157906130ce91613076565b90565b6130da91613076565b90565b90816130fa6130f46130ef6004610d01565b610423565b91610423565b101561310b576131099161312e565b565b613113610143565b630e5ea16760e41b81528061312a6004820161050d565b0390fd5b9061314e60006131486131428560036101be565b50610d61565b01610207565b61316161315b6004610322565b91610322565b146131715761316f916131e7565b565b613179610143565b637934aa7b60e01b8152806131906004820161050d565b0390fd5b61319d90610322565b90565b90565b906131b86131b36131bf92613194565b6131a0565b8254611518565b9055565b9160206131e59294936131de6040820196600083019061065c565b019061033a565b565b6131fc6131f6600383906101be565b50610d61565b61320983600083016131a3565b6132164260088301612b34565b8261322a6132246000610322565b91610322565b1460001461328857806007613244600861324b940161027e565b9101612b34565b5b907f256ace825f57d7b5916c17edd2ef1b56760a9754eb5a14ea1a15dd7adf890c479161328361327a610143565b928392836131c3565b0390a1565b8261329c6132966004610322565b91610322565b146132a8575b5061324c565b8060096132ba60086132c1940161027e565b9101612b34565b386132a2565b906132d1916130dd565b565b6132db612818565b6132f46132ee6132e9613389565b610365565b91610365565b036132fb57565b613324613306613389565b61330e610143565b91829163118cdaa760e01b83526004830161086d565b0390fd5b613332600061025a565b61333d8260006115fb565b9061337161336b7f8be0079c531659141344cd1fd0a4f28419497f9722a3daafe3b4186f6b6457e093610d64565b91610d64565b9161337a610143565b806133848161050d565b0390a3565b613391612813565b50339056fea26469706673582212203e1dbd43ca7094377407df1668435c0f9cce4e53816b1720a06a24f2a48c450364736f6c63430008170033",
  "linkReferences": {},
  "deployedLinkReferences": {}
}